{
  "contractName": "MarketplaceContract",
  "abi": [
    {
      "inputs": [
        {
          "internalType": "address",
          "name": "shippingStatusContractAddress",
          "type": "address"
        }
      ],
      "payable": false,
      "stateMutability": "nonpayable",
      "type": "constructor"
    },
    {
      "anonymous": false,
      "inputs": [
        {
          "indexed": false,
          "internalType": "address",
          "name": "seller",
          "type": "address"
        },
        {
          "indexed": false,
          "internalType": "uint256",
          "name": "price",
          "type": "uint256"
        }
      ],
      "name": "NewAlert",
      "type": "event"
    },
    {
      "anonymous": false,
      "inputs": [
        {
          "indexed": false,
          "internalType": "address",
          "name": "seller",
          "type": "address"
        },
        {
          "indexed": false,
          "internalType": "address",
          "name": "buyer",
          "type": "address"
        },
        {
          "indexed": false,
          "internalType": "uint256",
          "name": "price",
          "type": "uint256"
        }
      ],
      "name": "PurchasedItem",
      "type": "event"
    },
    {
      "constant": true,
      "inputs": [],
      "name": "shippingStatusContract",
      "outputs": [
        {
          "internalType": "contract ShippingStatusContract",
          "name": "",
          "type": "address"
        }
      ],
      "payable": false,
      "stateMutability": "view",
      "type": "function"
    },
    {
      "constant": false,
      "inputs": [
        {
          "internalType": "address",
          "name": "seller",
          "type": "address"
        },
        {
          "internalType": "uint256",
          "name": "price",
          "type": "uint256"
        }
      ],
      "name": "addItem",
      "outputs": [],
      "payable": false,
      "stateMutability": "nonpayable",
      "type": "function"
    },
    {
      "constant": false,
      "inputs": [
        {
          "internalType": "address",
          "name": "seller",
          "type": "address"
        },
        {
          "internalType": "address",
          "name": "buyer",
          "type": "address"
        },
        {
          "internalType": "uint256",
          "name": "price",
          "type": "uint256"
        }
      ],
      "name": "purchaseItem",
      "outputs": [],
      "payable": true,
      "stateMutability": "payable",
      "type": "function"
    }
  ],
  "bytecode": "0x608060405234801561001057600080fd5b506040516106843803806106848339818101604052602081101561003357600080fd5b8101908080519060200190929190505050806000806101000a81548173ffffffffffffffffffffffffffffffffffffffff021916908373ffffffffffffffffffffffffffffffffffffffff160217905550506105f0806100946000396000f3fe6080604052600436106100345760003560e01c806307a74f211461003957806381bf42751461009057806390e74bab146100fe575b600080fd5b34801561004557600080fd5b5061004e610159565b604051808273ffffffffffffffffffffffffffffffffffffffff1673ffffffffffffffffffffffffffffffffffffffff16815260200191505060405180910390f35b6100fc600480360360608110156100a657600080fd5b81019080803573ffffffffffffffffffffffffffffffffffffffff169060200190929190803573ffffffffffffffffffffffffffffffffffffffff1690602001909291908035906020019092919050505061017e565b005b34801561010a57600080fd5b506101576004803603604081101561012157600080fd5b81019080803573ffffffffffffffffffffffffffffffffffffffff1690602001909291908035906020019092919050505061052b565b005b6000809054906101000a900473ffffffffffffffffffffffffffffffffffffffff1681565b8173ffffffffffffffffffffffffffffffffffffffff163373ffffffffffffffffffffffffffffffffffffffff1614610202576040517f08c379a000000000000000000000000000000000000000000000000000000000815260040180806020018281038252602181526020018061059b6021913960400191505060405180910390fd5b6000600181111561020f57fe5b6000809054906101000a900473ffffffffffffffffffffffffffffffffffffffff1673ffffffffffffffffffffffffffffffffffffffff16631865c57d6040518163ffffffff1660e01b815260040160206040518083038186803b15801561027657600080fd5b505afa15801561028a573d6000803e3d6000fd5b505050506040513d60208110156102a057600080fd5b810190808051906020019092919050505060018111156102bc57fe5b1461032f576040517f08c379a00000000000000000000000000000000000000000000000000000000081526004018080602001828103825260168152602001807f4974656d206d75737420626520617661696c61626c650000000000000000000081525060200191505060405180910390fd5b803410156103a5576040517f08c379a00000000000000000000000000000000000000000000000000000000081526004018080602001828103825260128152602001807f496e73756666696369656e742066756e6473000000000000000000000000000081525060200191505060405180910390fd5b8273ffffffffffffffffffffffffffffffffffffffff166108fc829081150290604051600060405180830381858888f193505050501580156103eb573d6000803e3d6000fd5b506000809054906101000a900473ffffffffffffffffffffffffffffffffffffffff1673ffffffffffffffffffffffffffffffffffffffff16630591d3ab60016040518263ffffffff1660e01b81526004018082600181111561044a57fe5b60ff168152602001915050600060405180830381600087803b15801561046f57600080fd5b505af1158015610483573d6000803e3d6000fd5b505050507f2114172e14ede64480d6a396d65773782893da59db91a47c82c4fe60c9e1fcf5838383604051808473ffffffffffffffffffffffffffffffffffffffff1673ffffffffffffffffffffffffffffffffffffffff1681526020018373ffffffffffffffffffffffffffffffffffffffff1673ffffffffffffffffffffffffffffffffffffffff168152602001828152602001935050505060405180910390a1505050565b7f4e767f859fee840f48fc3e8499e5e88a404867f3a7fe7d8ae4342e688971acb88282604051808373ffffffffffffffffffffffffffffffffffffffff1673ffffffffffffffffffffffffffffffffffffffff1681526020018281526020019250505060405180910390a1505056fe4f6e6c79207468652062757965722063616e207075726368617365206974656d73a265627a7a72315820cf7c3036a47926cbcfcb3358ef6f76f2e1e34353b9676f68c9c409f2fa513aae64736f6c63430005100032",
  "source": "pragma solidity ^0.5.16;\r\n\r\nimport \"./shipping_status_contract.sol\";\r\n\r\ncontract MarketplaceContract {\r\n    ShippingStatusContract public shippingStatusContract;\r\n\r\n    event NewAlert(address seller, uint price);\r\n    event PurchasedItem(address seller, address buyer, uint price);\r\n\r\n    constructor(address shippingStatusContractAddress) public {\r\n        shippingStatusContract = ShippingStatusContract(shippingStatusContractAddress);\r\n    }\r\n\r\n    function addItem(address seller, uint price) public {\r\n        // Add an item to the marketplace\r\n        emit NewAlert(seller, price);\r\n    }\r\n\r\n    function purchaseItem(address seller, address buyer, uint price) public payable {\r\n        // Purchase an item from the marketplace\r\n        require(msg.sender == buyer, \"Only the buyer can purchase items\");\r\n        require(shippingStatusContract.getState() == ShippingStatusContract.StateType.ItemAvailable, \"Item must be available\");\r\n        require(msg.value >= price, \"Insufficient funds\");\r\n\r\n        // Transfer funds from buyer to seller\r\n        address(uint160(seller)).transfer(price);\r\n\r\n        // Update the shipping status to \"ItemPurchased\"\r\n        shippingStatusContract.updateState(ShippingStatusContract.StateType.ItemPurchased);\r\n\r\n        emit PurchasedItem(seller, buyer, price);\r\n    }\r\n}\r\n",
  "sourcePath": "C:\\Users\\Administrator\\Desktop\\MarketPlace\\contracts\\marketplace_contract.sol",
  "compiler": {
    "name": "solc",
    "version": "0.5.16+commit.9c3226ce.Emscripten.clang"
  },
  "schemaVersion": "3.4.16",
  "updatedAt": "2024-01-05T12:59:21.039Z",
  "devdoc": {
    "methods": {}
  },
  "userdoc": {
    "methods": {}
  }
}