{
  "contractName": "ShippingStatusContract",
  "abi": [
    {
      "inputs": [],
      "payable": false,
      "stateMutability": "nonpayable",
      "type": "constructor"
    },
    {
      "constant": true,
      "inputs": [],
      "name": "state",
      "outputs": [
        {
          "internalType": "enum ShippingStatusContract.StateType",
          "name": "",
          "type": "uint8"
        }
      ],
      "payable": false,
      "stateMutability": "view",
      "type": "function"
    },
    {
      "constant": false,
      "inputs": [
        {
          "internalType": "enum ShippingStatusContract.StateType",
          "name": "newState",
          "type": "uint8"
        }
      ],
      "name": "updateState",
      "outputs": [],
      "payable": false,
      "stateMutability": "nonpayable",
      "type": "function"
    },
    {
      "constant": true,
      "inputs": [],
      "name": "getState",
      "outputs": [
        {
          "internalType": "enum ShippingStatusContract.StateType",
          "name": "",
          "type": "uint8"
        }
      ],
      "payable": false,
      "stateMutability": "view",
      "type": "function"
    }
  ],
  "bytecode": "0x608060405234801561001057600080fd5b5060008060006101000a81548160ff0219169083600181111561002f57fe5b0217905550610151806100436000396000f3fe608060405234801561001057600080fd5b50600436106100415760003560e01c80630591d3ab146100465780631865c57d14610077578063c19d93fb146100a3575b600080fd5b6100756004803603602081101561005c57600080fd5b81019080803560ff1690602001909291905050506100cf565b005b61007f6100f4565b6040518082600181111561008f57fe5b60ff16815260200191505060405180910390f35b6100ab61010a565b604051808260018111156100bb57fe5b60ff16815260200191505060405180910390f35b806000806101000a81548160ff021916908360018111156100ec57fe5b021790555050565b60008060009054906101000a900460ff16905090565b6000809054906101000a900460ff168156fea265627a7a72315820f2c0687c7a7623927c08dfdc562ead0a7912e375ff2d4e643b2e48edd4432e9a64736f6c63430005100032",
  "source": "pragma solidity ^0.5.16;\r\n\r\ncontract ShippingStatusContract {\r\n    enum StateType { ItemAvailable, ItemPurchased }\r\n\r\n    StateType public state;\r\n\r\n    constructor() public {\r\n        state = StateType.ItemAvailable;\r\n    }\r\n\r\n    function updateState(StateType newState) public {\r\n        state = newState;\r\n    }\r\n\r\n    function getState() public view returns (StateType) {\r\n        return state;\r\n    }\r\n}\r\n",
  "sourcePath": "C:\\Users\\Administrator\\Desktop\\MarketPlace\\contracts\\shipping_status_contract.sol",
  "compiler": {
    "name": "solc",
    "version": "0.5.16+commit.9c3226ce.Emscripten.clang"
  },
  "schemaVersion": "3.4.16",
  "updatedAt": "2024-01-05T12:59:21.045Z",
  "devdoc": {
    "methods": {}
  },
  "userdoc": {
    "methods": {}
  }
}